:020000040000FA
:0600000002011A0229BFF3
:03002B000231346B
:0300330002311681
:03005300022A324C
:03006B000230ED73
:1000830002282BE5C754F84401F5C7790122000083
:100093000080FB120086B90003020104E47944786E
:1000A30008B800028004F709D8FCE4794C7802B858
:1000B30000028004F709D8FCE490028178537908A0
:1000C3008002F0A3D8FCD9FA784390014A7A01BAA6
:1000D30000028007E493A3F608DAF97AD37B099048
:1000E300014B784979048015E493A3AD82AE838AEA
:1000F300828B83F0A3AA82AB838D828E83D8E9D9C6
:10010300E77582697583C2740312012C7582917538
:100113008300740012012C75D00075814F754181E5
:10012300754202759F00020096C09FF59FE473D04D
:100133009F22D083D082C09FE493C0E0740193C018
:10014300E0740293F59F2201FF0000B40000280031
:100153002800283075A000A000A000A0000008001F
:1001630008E001F000100010001000100010001053
:100173000050005000500010001000D00700000095
:100183000000000F0001000500307507001000019A
:100193000081FF00000000FF9106AF069706FF02F3
:1001A300020208025000A0000000E80302338501A8
:1001B300000075840237850100002A0A0255850173
:1001C3000000B3020237850100002B0A02458501B6
:1001D3000000C9020237850100002C0A0243850191
:1001E3000000CB020237850100002D0A0241850879
:1001F3000000CC020237850100002E0A023F850170
:1002030000002F0AFF0100FF2002338501000013C5
:1002130085023785010000930A023D850000000036
:1002230000023B850300001903670C670C670C672A
:100233000C670C670C670C670C670C670C670C6723
:100243000C670CFB0E130FF50E02020202020202F0
:100253000202010D000000100102338501000010AD
:1002630085023785010000D40A022785010000407A
:1002730007023785010000D50A022585010000EE3B
:1002830083023785010000D60A022385010000D2CC
:1002930083023785010000D70A0221850100004A45
:1002A30083023785010000D80A021F850100003848
:1002B30083023785010000D90A021B850100006E05
:1002C30083023785010000DA0A0219850100005C08
:1002D30083023785010000DB0A022B85010000E061
:1002E30083023785010000DC0A022F85010000DD4F
:1002F3000A01E803053F100AFFFFFF000130750301
:1003030002010600000000000000000000000000E1
:10031300000000000000000000000000000000FFDB
:10032300FF0600800CE80307094772616D737305CC
:100333001232002003020A000201060302F0FF4208
:100343004C45204772616D7373000000000000008C
:100353000000000000002041000020414D61737344
:100363003D000000000000000000005363616C6565
:100373002057726F6E67B1130000B7130A436861A9
:100383007261637465726973746963203100024337
:1003930068617261637465726973746963203200A2
:1003A3000843686172616374657269737469632079
:1003B30033001043686172616374657269737469B1
:1003C3006320340002436861726163746572697308
:1003D30074696320350016436861726163746572E2
:1003E3006973746963203600023385010000168542
:1003F300023785010000070C024B850300007D09CD
:10040300023985010000080C023785010000190C30
:10041300024D8501000091090239850100001A0C83
:100423000237850100002B0C024F85020000920960
:100433000239850100002C0C0237850100003D0CB8
:100443000251850000009309023B850300009409D3
:100453000239850100003E0C0237850100004F0C74
:100463000253850400009A09023985010000500CEB
:10047300023785010000610C022D850300009F09EE
:10048300023B85030000B309023985010000620CB9
:10049300120135257E001201353C7E001201356DB7
:1004A3007E00120135A87E00120135D27E001201B2
:1004B30035FC7E00120135137F001201352A7F00BF
:1004C300120135417F001201356A7F001201357D2B
:1004D3007F00120135937F00120135A67F001201C0
:1004E30035CD7F0012013546CE021201354ACF02C7
:1004F30012013582CF02120135A5CF02120135B0A8
:10050300CF02120135D3CF02120135E2D00212011C
:1005130035B7D10212013532D202120135BAD202F5
:10052300120135F5D2021201352CD302120135BA6C
:10053300D30212013593D402120135F3D40212010E
:1005430035FED4021201357DD50212013580D50264
:1005530012013583D50212013512D6021201351567
:10056300D60212013545D6021201356FD6021201A9
:10057300355DD7021201350FD80212013500800311
:100583001201352880031201355680031201358D7F
:100593008003120135EB800312013536810312010A
:1005A30035818103120135C18103120135078203AD
:1005B300120135358203120135F28203120135FC33
:1005C30082031201350983031201353C83031201AF
:1005D300350884031201351484031201352C840376
:1005E30012013536840312013510FF021201351E44
:1005F300FF0212013536FF021201354EFF021201CE
:10060300358FDC011201353BDD01120135B6DD0109
:10061300120135D7DE0112013513DF01120135BC9A
:10062300DF01120135A3E00112013507E2011201D6
:10063300355EE201120135DFE201120135CFE3013C
:100643001201351CE401120135A2E401120135D473
:10065300E401120135E8E6011201352AE70112012E
:100663003548E701120135CBE7011201359FE80157
:1006730012013567E901120135EDF702120135C0A8
:10068300F80212013569F902120135BCF9021201AF
:10069300356CFA02120135F8FA02120135E4FB0255
:1006A30012013513FC0212013526FD021201356ECB
:1006B300FD0212013543FE021201357FFE021201D3
:1006C300359BFE0212013586C1031201351AA203BE
:1006D30012013530A20312013556A20312013572FD
:1006E300A3031201357CA303120135B1A403120144
:1006F30035A9A503120135ECF9011201351CFB01E3
:100703001201354FFB0112013599FB0112013560CE
:10071300FD011201353EBD01120135A8BD011201D3
:100723003507BF0112013517BF0112013544BF015F
:100733001201359BBF0112013544C0011201354B33
:10074300C10112013515C20112013575C301120130
:1007530035B8C3011201355DC401120135AAC401C4
:10076300120135D0C401120135DEC601120135E391
:10077300C601120135E8C80112013535C90112015C
:1007830035A8C901120135DBC9011201357DCA0142
:1007930012013526CB011201355ECB011201356101
:1007A300CB01120135A9CB01120135E9CB011201AD
:1007B3003540CC01120135ACA803120135C4A8039E
:1007C3001201350CA90312013522A903120135695F
:1007D300A9031201357DAA031201350AAB031201E5
:1007E3003555AB031201356031001201356C310010
:1007F300120135A73100120135EC3100120135AC7D
:1008030032001201353233001201359733001201E1
:1008130035C33300120135FC33001201353A36007B
:100823001201351E3800120135043A001201354712
:100833003B00120135953D00120135A73E00120120
:1008430035F23F001201350241001201351F41000C
:100853001201355A41001201357C4100120135DF86
:100863004100120135A0460012013535470012013F
:1008730035864700120135AD4700120135FF4700A9
:100883001201351D48001201357748001201356009
:100893004900120135D64A001201355A4B001201A4
:1008A30035BD8403120135C784031201350A85035C
:1008B300120135258503120135B58503120135DD96
:1008C30085031201351A860312013551860312017D
:1008D300357A8603120135EF860312013504870347
:1008E3001201351987031201354A87031201355E58
:1008F3008703120135838703120135BD8703120174
:1009030035E98703120135218803120135A08803D5
:10091300120135E988031201351389031201353EAB
:10092300890312013583BC0312013545B602120156
:100933003573B602120135C1B702120135A1B802EF
:10094300120135C0B8021201353DB90212013580DA
:10095300B902120135D6BA0212013597BB02120150
:10096300351EBE02120135BFBE02120135B5BF02EC
:10097300120135B2C0021201350CC20212013597C1
:10098300C20212013528BB0312013591BB031201C8
:1009930035E5BB031201350CBC031201353DBC0325
:1009A300120135D58D03120135428E0312013589AB
:1009B3008E03120135A18F031201359D900312019D
:1009C3003580910312013580D802120135C2D80255
:1009D30012013594D9021201356DDA02120135671D
:1009E300DB0212013549DC02120135B2DC021201CD
:1009F3003568DD02120135DCDD0212013548DE0205
:100A030012013571DE02120135EBDE02120135846B
:100A1300DF02120135E9DF02120135FEDF021201A6
:100A23003544E0021201355DE002120135C2E002F5
:100A3300120135C5E002120135B3A503120135DBFE
:100A4300A50312013519A603120135D7A603120116
:100A5300353EA7031201355AA70312013582A703B6
:100A6300120135B2A703120135C1A7031201353EA6
:100A7300A80312013564A8031201352DCD0112011B
:100A8300350BCF011201353DD10112013579D10169
:100A9300120135A6D10112013590D201120135DBC5
:100AA300D20112013526D30112013538D3011201C7
:100AB3003578D301120135ADD301120135FBD301D2
:100AC3001201352AD4011201354DD4011201359A90
:100AD300D4011201351FD50112013539D701120195
:100AE3003578D901120135B9D9011201355BDB0122
:100AF3001201359CDB011201350FDC011201356552
:100B0300DC0112013530A9021201352EAA021201AD
:100B130035C7B002120135E8B202120135B3B4028F
:100B23001201351BB602120135C14B00120135709B
:100B33004C001201359D4C00120135E34C001201AB
:100B430035234E00120135B94F00120135335000E1
:100B53001201354E5000120135C9500012013523E0
:100B630052001201358353001201358954001201DA
:100B730035EA55001201350356001201356156005E
:100B83001201354F5700120135825700120135F219
:100B930057001201356C5800120135B65800120186
:100BA30035805900120135555A00120135345B0066
:100BB300120135BF5B001201352D5C00120135A116
:100BC3005C00120135CC5C001201358B5D00120113
:100BD30035F05E001201350D5F001201352C5F0008
:100BE3001201351D60001201354260001201356C9F
:100BF3006000120135E76000120135416100120106
:100C030035AA620012013558630012013599630059
:100C13001201352F8E021201357D8E0212013589A4
:100C23008E02120135678F02120135988F0212016D
:100C330035C98F02120135499002120135819002A4
:100C4300120135D390021201351091021201352D94
:100C530093021201355395021201353E9702120198
:100C630035289902120135F27F00120135598501A9
:100C7300120135898501120135628C01120135E7B4
:100C83008D01120135E49301120135CC9401120157
:100C9300350995011201352C95011201355D950138
:100CA3001201356695011201357095011201355E09
:100CB3009601120135549701120135C963001201DF
:100CC30035C86700120135CE6700120135096F0080
:100CD300120135227400120135909A031201352650
:100CE3009B031201353C9B03120135B29B03120196
:100CF30035269C03120135649C03120135D89C03ED
:100D0300120135519D031201355A9D0312013566B7
:100D13009D031201357B9D03120135B99D03120119
:100D230035CF9D031201352E9E03120135429203E6
:100D33001201354F9203120135699203120135A84E
:100D43009203120135E692031201354B930312010C
:100D5300356093031201356B9303120135789303C6
:100D63001201358F93031201359D9303120135A8A8
:100D73009303120135B49303120135C39303120194
:100D830035CE9303120135F1930312013598940381
:100D9300120135A89403120135C29403120135DF01
:100DA3009403120135FB94031201352095031201BC
:100DB300352B9503120135409503120135549503E4
:100DC300120135B59503120135BB9503120135C1E7
:100DD3009503120135C79503120135DF95031201FF
:100DE30035129603120135058002120135898002FE
:100DF300120135388102120135978202120135B88A
:100E03008402120135A48502120135D9850212012B
:100E130035FB8502120135AA8602120135A288022A
:100E2300120135CB88021201355D89021201358F1B
:100E330089021201359C8902120135F389021201DC
:100E430035198A02120135868C02120135898D0209
:100E5300120135E18D0212013580EB011201358A51
:100E6300EC0112013571ED011201357BED01120127
:100E7300359DED01120135A9ED0112013542EF0156
:100E830012013571EF011201358DF001120135E6C2
:100E9300F0011201354CF2011201352BF30112015D
:100EA3003587F301120135F4F3011201352FF401F3
:100EB3001201356EF40112013527F7011201354194
:100EC300F701120135CDF701120135DBF7011201EC
:100ED3003534F80112013542F801120135B5F80134
:100EE30012013519F90112013563F901120135189F
:100EF300C3021201353AC30212013560C502120161
:100F03003575C8021201358DC90212013540CA0276
:100F130012013522CB02120135BBB403120135E0B5
:100F2300B40312013552B50312013573F0021201F5
:100F3300357CF00212013585F0021201355CF102B5
:100F43001201350DF30212013543F3021201357D0F
:100F5300F302120135B3F302120135EDF30212016C
:100F63003521F4021201354DF40212013596F402D3
:100F7300120135D0F40212013519F502120135714F
:100F8300F502120135A6F50212013501F60212012E
:100F9300353BF6021201358CF602120135C2F60218
:100FA300120135FCF6021201352AF7021201354D02
:100FB300F70212013548C00312013574C003120150
:100FC30035CFC003120135D9C003120135E9C0037F
:100FD3001201357FAB03120135A4AB03120135CFE8
:100FE300AB031201350AC3031201356C99011201D7
:100FF30035B99B01120135699D01120135619E01CD
:10100300120135E89E01120135779F011201359CCB
:101013009F01120135CDA20112013541A301120135
:101023003530A40112013566A401120135A9A401CA
:1010330012013526A60112013568A601120135B148
:10104300A6011201351AA7011201353CA7011201AD
:101053003556A70112013574A80112013584A80180
:1010630012013594A901120135A9A901120135DF35
:10107300A90112013560AB011201359DAB011201CB
:1010830035C2AC0112013594BF03120135A5BF036C
:10109300120135C1C20312013500C303120135DF4A
:1010A3007F0012013513FF0112013523FF011201E5
:1010B300353BFF01120135EFFF011201359CBD03E2
:1010C3001201351FBE0312013585BE03120135021D
:1010D300B8031201352BB8031201358EB803120180
:1010E30035ADB80312013500B90312013559B903FF
:1010F30012013594B90312013597B9031201355E14
:101103009E03120135839E03120135A09E03120133
:1011130035BD9E03120135E09E03120135109F0376
:10112300120135299F03120135DC9F031201355645
:10113300A0031201357AA00312013584A003120122
:101143003582A1031201358F9603120135A696034A
:101153001201351F9703120135F39703120135C5A9
:1011630099031201352A9A031201357D9A0312015C
:1011730035F87F001201358DB00312013515B20326
:1011830012013576B203120135BCB203120135A147
:10119300B903120135C4B903120135EDB9031201C4
:1011A3003587BA031201359DBA03120135DFBA033D
:1011B300120135E9E002120135F3E0021201353381
:1011C300E1021201357CE102120135B4E1021201A0
:1011D300350AE20212013527E202120135A6E402C2
:1011E300120135AFE402120135F4E4021201351D98
:1011F300E50212013527E50212013598E5021201D5
:101203003525E6021201358AE602120135B3E602FC
:101213001201352FE7021201356AE7021201359FE9
:10122300E702120135B1E702120135D0E7021201DC
:1012330035D9E70212013590E80212013560B60391
:10124300120135B1B6031201353AB703120135A4C1
:10125300B70312013552AE031201357AAE03120100
:101263003541AF031201351CB0031201359EBE0395
:10127300120135BFB203120135F5B203120135284D
:10128300B30312013581B403120135F3C003120114
:101293003509C10312013513C1031201355BC103C3
:1012A3001201350AC203120135BCE8021201357678
:1012B300E902120135B1E902120135E2E902120134
:1012C3003542EA021201358CEA02120135E1EA02E3
:1012D3001201356CEB0212013565EC02120135DBAC
:1012E300ED021201356BEE02120135D1EE0212014D
:1012F30035E4EE02120135C9EF0212013513F00293
:101303001201356689031201357C89031201351DEB
:101313008A031201355C8A03120135798A031201AB
:1013230035AA8A03120135F78A031201352A8B0382
:10133300120135658B03120135608D03120135C827
:101343008D03120135039C02120135339F021201F2
:1013530035B8A0021201350FA1021201352EA102E8
:10136300120135ACA10212013530A302120135037B
:10137300A402120135B6A7021201359AA80212017E
:1013830035F8AC011201351DAF01120135D0B101A1
:10139300120135F5B101120135F9B20112013544DB
:1013A300B30112013563B401120135D5B401120141
:1013B3003543BB01120135C6BC01120135D8780093
:1013C300120135287900120135457900120135964D
:1013D3007A001201354C7B001201356A7C00120140
:1013E30035E57D0012013588C30312013551C3036E
:1013F300120135B4C303120135DDC303E066701077
:1014030008A3E066700A08A3E066700408A3E06618
:1014130022C3E7960809E7960809E7960809E796BD
:1014230022C3E09608A3E09608A3E09608A3E096FB
:1014330022C021C3E096F52108A3E096422108A328
:10144300E096422108A3E09645217001D3D02122E2
:10145300080808E630E711121C9D12146B080808EF
:10146300C64480C618181822181818E9799EC608A9
:10147300CAC608CBC608CCC6C370207996CACBCCE3
:101483007019798ECBCC70137986CC700EF9802AC3
:10149300CA33CACB33CBCC33CC331930E7F2CCCB02
:1014A300CA3350147004EA30E00DE4CA3ACACB3BA5
:1014B300CBCC3CCC500209C3E913C6CC182313C6CA
:1014C300CB18C6CA18C6F92212151630F0391215F0
:1014D3005B803412151620F01430E72B74FFFCFBED
:1014E300FA747F8022E4FCFBFA7480801AB48008CB
:1014F300BC00F2BB00EF800F50EBF9E4C39AFAE4AF
:101503009BFBE49CFCE499C6CC18C6CB18C6CA184E
:10151300C6F922E4C9C608CAC608CBC6D333030832
:10152300CCC63392F0C3947F402E94184019C9B9A6
:101533000704CACBCC225025C309CA33CACB33CB49
:10154300CC33CC33D9F422F4600DC9CCC313CB1301
:10155300CBCA13CAD9F6CC22E4FCFBFA2214FCFB57
:10156300FA22E62618461846184622E7271947198D
:1015730047194722181818E60846087009E626088E
:101583007005E633F4220822191919E7094709708F
:1015930009E727097005E733F4220922E60846081C
:1015A300C3134608336002E633F422E7094709C34D
:1015B300134709336002E733F42212159F601B12AD
:1015C30015AE6016121565700712156E600CB32206
:1015D300C0D012156E7005D0D022C32233D0D050A4
:1015E3001330E0EBC3E7960809E7960809E7960886
:1015F30009E7962220E0E4E6970809E6970809E65A
:10160300970809E697220012159F604F1215AE60E6
:1016130012E7548066F6121577701112156E703B3F
:10162300090909F4F618F618F618F62212158B7044
:101633001512156508080860EAE6447FF6187680F7
:1016430018E4F618F622121565601612156E70125C
:10165300E4F608F608F608E65480F60909091818AE
:101663001822EAC0E0EBC0E0ECC0E0EDC0E0E687A2
:10167300F0A4FBACF008E687F0A42CFCE435F0FA08
:101683001809E687F0A42C4B60027401CA35F0FCFC
:10169300E433FB09E687F0D2F7A42CCB35F0FC1931
:1016A30008E687F0A42BCC35F0FBE433FD0819E6FC
:1016B30087F0D2E7A42C4ACB35F0CD3400FC09E601
:1016C30087F0D2E7A42DCC35F0FDE433FA0918E610
:1016D30087F0D2F7A42CCD35F0CA3400FC08E68796
:1016E300F0D2E7D2F7A42ACC35F07A7E20E70B0AB2
:1016F300CB33CBCD33CDCC33CC33CB33501470047D
:10170300ED30E00ED2F1E4CD3DCDCC3CCC3B5005E9
:10171300DA05C2F1EB547FC63308E63392F0FBE7F8
:101723003309E733C39A502D2B70190C0D4C4D70B0
:10173300151806E608C333700D20F10AA2F013F65C
:10174300E418800B4024E4F630F002768018F61893
:10175300F618F68024D33B14501074FFA2F013F64E
:10176300187680E418F618F6800FA2F013F618E640
:101773003303F618ECF618EDF6D0E0FDD0E0FCD01C
:10178300E0FBD0E0FA221215AE604612159F603DD1
:10179300E9687008F618F618F618F622748067F7E9
:1017A3001217BD090909748067F72212159F601D7E
:1017B3001215AE7005191919801A121577701F12B8
:1017C300158BC37003E667331919194007181818E6
:1017D3002208080874FFF618F618F618F6221215F0
:1017E3008B601712156E702192F0121565701950E7
:1017F3001720F014080808090909E7F61819E7F68D
:101803001819E7F61819E7F62212156560E6E86974
:10181300701F0808E62480F608E436F618547FB4EF
:101823007F0CE654806007F6E418F618F6221818C1
:1018330022E9C6CC08C6CD08C6CE08C6CFC0E0E8AC
:10184300C0E0EAC0E0EBC0E009E9F809E7FA09E71C
:10185300FBE6F918E6F8C3EC98ED99EE9AEBC2E7CC
:10186300F5F0EFC2E795F0500E600CEBCFFBEACE3C
:10187300FAE9CDF9E8CCF8EAA2E7D2E7FAEB33FBD1
:1018830013F5F0EEA2E7D2E7FEEF33FFC5F013A2A4
:10189300E730E601B313C5F0C3C0E0C0F07F00C377
:1018A3009BFB605E9418600F401D14601AD0E02308
:1018B300F9D0E0F802198F8AF0E9486003D2F0E426
:1018C300AFF0FAF9F8803BEB30E40D89F0EA6003FE
:1018D300D2F0E4AFF0F9CAF8EB30E30D88F0EF6033
:1018E30002D2F0AFF0E4CAC9F8EB54076014FBC3AB
:1018F300EA13FAE913F9E813F8EF135002D2E0FF01
:10190300DBEDD0E0C0E030E739C3E49FFFF5F0EC56
:1019130098FC42F0ED99FD42F0EE9AFE42F0D0E0E1
:10192300F9D0E0F8E5F0607AE923F9EE20E742D850
:10193300028067C3EF33FFEC33FCED33FDEE33FE80
:1019430080EAEC28FCED39FDEE3AFED0E023F9D035
:10195300E0F84002801BC3EE13FEED13FDEC13FC15
:10196300EF135002D2E0FF08B800067F7F74FF80B8
:101973002EEF3350178CF020F00260100CBC000CDB
:101983000DBD00080EBE000408E860DFE933E8136C
:10199300FFEE2313FE4F4D4C8008E95480FFE4FE15
:1019A300FDFCEE33EF33F47004FCFD7E80D0E0FBEE
:1019B300D0E0FAD0E0F8D0E0CFC618CEC618CDC636
:1019C30018CCC6F92212159F700418181822121584
:1019D300AE700D74FFF61819F61819F61819F622D9
:1019E300E7548066F6121565700F12156E70F014C9
:1019F300F608F608F608F680D112156E700CF60894
:101A0300F608768008E6447F80EC12158E700C127F
:101A1300157A60BFE65480F6E480BB12157A700530
:101A230019191980A5E869700C763F18768018F6A5
:101A330018F6E8F922E6CDC0E018ECC0E0E633CDB5
:101A430033CDD313F6E719FCE7191933CC33C39419
:101A53007F400ECD9D502408E65480F6E418F680AE
:101A63000FF4043D14501408E6447FF6187680E41E
:101A730018F618F6D0E0FCD0E0FD22CCD313CCFD51
:101A830018E4C6CBC0E018E4C6CAC0E00808ED08F5
:101A9300C633E613F618E433C675F003C3CA97CA10
:101AA30009CB97CB199C40047D08802EBD0003020F
:101AB3001B7116B6FF050606081618C3CA33CACB30
:101AC30033CB33CA27CA09CB37CB193CC37D088034
:101AD3003E187D0820E75CC633C6CA33CACB33CB76
:101AE30033DDF1D5F0EB30E77BCA97CA09CB974AD0
:101AF300CB199C406F4B7025E620E0218066187D52
:101B030008C3CA97CA09CB97CB199CD3C633C6CA95
:101B130033CACB33CB3350C9DDE7D5F0E1D3E4C6C9
:101B230036C608C636C608C636C608C636C6181828
:101B3300188031C3CA97CA09CB97CB199CB3409776
:101B4300C633C6CA33CACB33CB33DD34D5F02EC646
:101B5300A2E0C640C8CA27CA09CB37194A70BECB10
:101B63003CB480B90808E63308E633601F18181838
:101B7300D0E0FAD0E0FBD0E0FCD0E0FD22187D08F5
:101B8300CA27CA09CB37CB193CD3808013F618E494
:101B9300B67F11F618B6FF0EF618C60470D2080801
:101BA300768080CAF618F618F680C5080808EAC0D9
:101BB300E0EBC0E086F0E7A4FA180986F0E7A42A70
:101BC300FA180986F0E7A42AFA180986F0E7A42A86
:101BD300FA1986F0E7A4FBE5F02AFA190886F0E77C
:101BE300A42BFBE5F03AFA190886F0E7A42BFBE5F2
:101BF300F03AFA18180986F0E7A4C5F02BFBE43A8B
:101C0300FA1908E7C5F0C6A426F6E5F03BFBE43A6B
:101C1300FA1886F0E7A4F6E5F00826F6E43B08F6A2
:101C2300E43A08F6D0E0FBD0E0FA22E4CFC0E0E4E7
:101C3300CEC0E0E4CDC0E0E4CCC0E075F020E62601
:101C4300F608E633F608E633F608E633F61818180E
:101C5300EC33FCED33FDEE33FEEF33FFC3EC9709BA
:101C6300ED9709EE9709EF97191919400FFFEC97B4
:101C7300FC09ED97FD09EE97FE191906D5F0BFECA7
:101C8300F709EDF709EEF709EFF7191919D0E0FC99
:101C9300D0E0FDD0E0FED0E0FF22181818E4C39690
:101CA300F608E496F608E496F608E496F62260163B
:101CB300080808C6C313C618C613C618C613C61821
:101CC300C613C6D5E0EA2270090808082260161870
:101CD3001818C6C333C608C633C608C633C608C6F3
:101CE30033C6D5E0EA22E627F60809E637F60809FF
:101CF300E637F60809E637F622E026F608A3E036CB
:101D0300F608A3E036F608A3E036F622E026F0084C
:101D1300A3E036F008A3E036F008A3E036F022C3D0
:101D2300E697F60809E697F60809E697F60809E63E
:101D330097F622C3E096F008A3E096F008A3E09696
:101D4300F008A3E096F022E657F60809E657F608EE
:101D530009E657F60809E657F622E056F608A3E027
:101D630056F608A3E056F608A3E056F622E056F02E
:101D730008A3E056F008A3E056F008A3E056F022CB
:101D8300E647F60809E647F60809E647F60809E6CE
:101D930047F622E0F608A3E0F608A3E0F608A3E07E
:101DA300F622E6F008A3E6F008A3E6F008A3E6F0BF
:101DB30022E0FAA3E0FBA3E0FCA3E0FD22EAF0A308
:101DC300EBF0A3ECF0A3EDF022E0F8A3E0F9A3E03D
:101DD300FAA3E0FB22E8F0A3E9F0A3EAF0A3EBF017
:101DE30022CAC0E0E6F0A308DAFAD0E0FA22CAC0B9
:101DF300E0E0A3C582CCC582C583CDC583F0A3C56E
:101E030082CCC582C583CDC583DAE6D0E0CA22C3BE
:101E1300E498F8E499F9121E538026C3E49AFAE48D
:101E23009BFBE920E7E9121E53E498F8E499F922B1
:101E3300C3E498F8E499F9121E53E498F8E499F985
:101E4300C3E49AFAE49BFB22EB20E7CFE920E7E027
:101E5300B90010BB0008E88AF084F8AAF022E4FB7A
:101E6300C8FA22EB70227B10C833C8C933C9335078
:101E730007C39AC3DBF280069A50012ADBEAC83310
:101E8300F4C8C933F4C9FA2275F008E4C833C8C9E1
:101E930033C933C99AC99B5004C92AC93BD5F0EC4D
:101EA300FBC833F4C8E4C9FA22600D08C6A2E713DD
:101EB300C618C613C6D5E0F322600C08C6C313C602
:101EC30018C613C6D5E0F422700422600D18C6C3E9
:101ED30033C608C633C6D5E0F41822254110AF082F
:101EE300F541400C15428008F54140021542D2AF3E
:101EF3002200C0D0254110AF08F541500C054280A7
:101F030008F54150020542D2AFD0D0222541F582D7
:101F130010AF08F541400C15428008F54140021509
:101F230042D2AF854283222541F582E43542F583CF
:101F3300222541F8E43542F9222541FAE43542FBF2
:101F4300222541FCE43542FD22E4732541C582C0CC
:101F5300E0E54234FFC583C0E0E541C3958224F840
:101F630010AF08858342858241800885834285823C
:101F730041D2AFCEF0A3E520F0A37821E608F0A389
:101F8300DEFAEFF0A3E58124FAF8E608F0A3E60809
:101F9300F0A3E608F0A30808E608F0A3E608F0A318
:101FA30015811581D0E0FED0E0F8158115811581EA
:101FB300E8C0E0EEC0E0222541C582C0E0E542343E
:101FC300FFC583C0E0E541C3958224F910AF0885BE
:101FD30083428582418008858342858241D2AFCE88
:101FE300F0A3E520F0A37821E608F0A3DEFAEFF0F2
:101FF300A3E58124FBF8E608F0A3E608F0A30808AC
:10200300E608F0A3E608F0A315811581D0E0FED021
:10201300E0F815811581E8C0E0EEC0E02285428337
:10202300854182E0A3FEE0A3F5207821E0A3F60832
:10203300DFFAE0A3FFE0A3C0E0E0A3C0E0E0A3C0B9
:10204300E0E0A3C0E0E0A3C0E010AF0885824185D3
:1020530083428008858241858342D2AFD083D08278
:10206300020132854283854182E0A3FEE0A3F5208D
:102073007821E0A3F608DFFAE0A3FFE0A3C0E0E0E5
:10208300A3C0E0E0A3C0E0E0A3C0E010AF088582F6
:10209300418583428008858241858342D2AFD083C4
:1020A300D08222C0D02541C582C0E0E54234FFC5BD
:1020B30083C0E0E541C3958224F310AF08858342D2
:1020C3008582418008858342858241D2AFC8F0A3CF
:1020D300E9F0A3EAF0A3EBF0A37921E709F0A3D891
:1020E300FAECF0A3EDF0A3EEF0A3EFF0A3D0E0F051
:1020F300A3D0E0F0A3D0E0F0A3E520F0A3E5F0F057
:10210300A322854283854182E0C0E0A3E0F9A3E0F6
:10211300FAA3E0FBA37821E0F608A3DFFAE0FCA32F
:10212300E0FDA3E0FEA3E0FFA3E0C0E0A3E0C0E086
:10213300A3E0F5D0A3E0F520A3E0A3F5F010AF08EA
:102143008583428582418008858342858241D2AF5F
:10215300D082D083D0E0F8D0E032740480067402D9
:1021630080027401C0E0F404121F0FD0E0121DE4DA
:10217300227404800474028000CCC0E0EDC0E0E56A
:1021830041C39CCCAD4250011D10AF068C418D4222
:1021930080068C418D42D2AF121DF1D0E0FDD0E01C
:1021A300FC22D083D082E9C0E0E493A3C386F0C5C8
:1021B300F095F0F908E493A386F0C5F095F0700B61
:1021C300E493A3C3994005E9048002A3E475F002F4
:1021D300A42582F582E5F03583F583D0E0F9E49315
:1021E300A3C0E0E493C0E022D083D082ECC0E0ED52
:1021F300C0E0E493A3FCE493A3FDED4C600D122235
:1022030037EC24FFFCED34FFFD80EFE493A3FCE403
:1022130093A3FDED4C600D122276EC24FFFCED340C
:10222300FFFD80EFD0E0FDD0E0FCE493A3C0E0E449
:1022330093C0E022C0E0C3E4939608740193961818
:10224300400FE49366700808740193661870007079
:1022530019A3A3C3E49396087401939618A3A34008
:102263000DD0E0D0E0D0E0022227A3A3A3A3A3A331
:10227300D0E022C0E0C0F088F0E4936670080874F0
:10228300019366187000A8F0A3A3700BD0F0D0E000
:0E229300D0E0D0E0022227A3A3D0F0D0E022BA
:1022A40074F5121FBAEAFEEBFFEE2434F8EF3400A3
:1022B400F988218922EE2435F582EF3400F583E094
:1022C400F8EE2437F582EF3400F583E0F523EC854E
:1022D40023F0A4FCAAF08523F0EDA42AFDE82CF851
:1022E400E43DF97A257B00121E53EA85218285227A
:1022F40083F0F8740758F97401B900028004C333F9
:10230400D9FCFAE8131313541FF8EE28F8EF34003D
:10231400F9E8245DF582E93400F583E05A6008EEBB
:102324002434F582EF802CEE2434F582EF3400F56A
:1023340083E0C0E0EE2436F582EF3400F583E0F567
:10234400F0D0E084A8F0EE28F8EF3400F9E824385F
:10235400F582E93400F583E0F97F0402206674F520
:10236400121FBAEAFEEBFFEE2434F582EF3400F5D7
:1023740083E0C0E0EE2435F582EF3400F583D0E04D
:10238400F08E828F83A3A3A3A3A3A3A3C082C0833D
:102394008E828F83A3A3A3A3A3E0F8A3E0F9D08341
:1023A400D082E0C398F521A3E099F522EE247FF5CD
:1023B40082EF3400F583E064017069EE2480F582D5
:1023C400EF3400F583E0F8A3E0F98E828F83A3A3B2
:1023D400A3A3A3A3A3E0FCA3E0FD8E828F83A3A306
:1023E400A3A3A3E0FAA3E0FBC3EA9CEB9D5010C3B4
:1023F400EC98ED99402EC3EA98EB995027800EC3D0
:10240400EA98EB994007C3EC98ED9940177CDC7D82
:1024140004EEFAEFFB120BC5EE247FF582EF3400D5
:10242400F583E4F0EE2434F8EF3400F9E8FCE9FD38
:10243400EE2435F582EF3400F583E0F8EE2437F529
:1024440082EF3400F583E0F523E5218523F0A4F53C
:1024540021AAF08523F0E522A42AF522E82521F813
:10246400E43522F97A257B00121E53EA8C828D838F
:10247400F0F8740758F97401B900028004C333D921
:10248400FCFAE8131313541FF8EE28F8EF3400F99C
:10249400E8245DF582E93400F583E05A6008EE240F
:1024A40034F582EF802CEE2434F582EF3400F5838A
:1024B400E0C0E0EE2436F582EF3400F583E0F5F079
:1024C400D0E084A8F0EE28F8EF3400F9E82438F5D9
:1024D40082E93400F583E0F91230DF02235DC08223
:1024E400C083854182854283E0F8A3E0F9C3EA9C76
:1024F400EB9D5010C3EC98ED99401BC3EA98EB99FF
:102504005014800EC3EA98EB994007C3EC98ED99F8
:102514004004790180027900D083D08222EAC39CEE
:10252400FAEB9DFB2274EF121FBA9003A2E0640839
:102534006005E06407702A9061C8E060249003D0CD
:10254400E0F4601DE0F875F003A4C8AAF02AF97459
:10255400D228FE740339FF8E828F83A3A3A3E07075
:1025640003022659906060E0C0E0EE2468F582EF33
:102574003400F583D0E0F0752545752605752100F6
:10258400752200E5D914F523E5D95403F52760171E
:1025940074036527605CE5236010EE2467F582EF21
:1025A4003400F583E0700302263E900540E06401A8
:1025B400602AEE2482F582EF3400F583E06004782B
:1025C4000480027800852321E521C398FA95E0FB75
:1025D400120A8D8A218B22EA45227005120DC980C8
:1025E40074EE2482F582EF3400F583E070048A25CA
:1025F4008B26E5236012852582852683F524E5D97B
:10260400F0A31524E52470F6EE2482F582EF34005D
:10261400F583E0604474FC2523F5237825122161B9
:10262400AC23A927EEFAEFFB120C617402121EF41C
:10263400E97026AA21AB22121243793D8E828F8340
:10264400A3A3A3A3E0FA7B00120961EEFAEFFB1245
:102654000BDD120C73790080747403652760568552
:102664002329752A007829122161AC25AD26AA21D7
:10267400AB22120C3D7402121EF4EE2468F582EFB4
:102684003400F583E064807004747F8001E0F525F4
:102694007825122165E527F5257825122165A923DA
:1026A400AC21AD229003D0E0FA7B0012092574021C
:1026B400121EF480139003A2E06408600BAC25ADF5
:1026C40026EEFAEFFB120CCD120DD579017F0A022A
:1026D400206674F5121FBA74FC121EDEEAFEEBFFCC
:1026E4008921A2AFE433F522C2AF806AEE2463F8F5
:1026F400EF3400F97A007B00A2AFE433F523C2AFD4
:1027040088828983E0FCA3E0FDEC4D603A888289ED
:1027140083E0FAA3E0FB8A828B83E0FCA3E0FD88DC
:10272400828983ECF0A3EDF08A828B83E4F0A3F03A
:1027340088828983E0FCA3E0FDEC4D700A888289DD
:1027440083A3A3E4F0A3F0E523A2E092AF12124323
:102754009004E3E004F0EE2463F582EF3400F583A3
:10276400E0F8A3E0F9E849603DEE2463F582EF3434
:1027740000F583E02402FAA3E03400FBEA2402F526
:1027840023EB3400F52478231221618A828B83E0C1
:10279400FCA3E0F9EEFAEFFB120C017402121EF432
:1027A400E970030226F09004E3E060639004E4E03F
:1027B400F89004E3E0C398500C74026521705090C3
:1027C40004E5E0604A8E828F83A3A3A3A3E085413E
:1027D40082854283F0A3E4F09004E3E0F8740212EB
:1027E4001F2AE8F0A3E4F09004E3E0F89004E2E0A8
:1027F40028F07402121F2AAC82AD8385418285427F
:1028040083AA82AB8379011209319004E3E4F0E5F1
:1028140022A2E092AF7404121EF402235D000000B1
:102824008544878545C622C0E0C0D0E8C0E0E9C041
:10283400E0EAC0E0EBC0E0ECC0E0EDC0E0EEC0E0F8
:10284400C021C022C023C024C082C083C0F0A2AF74
:10285400E433FEC2AF759B00906182E0A2E05012A7
:10286400E591A2E0500C7591FE7401654470031269
:102874002529E0A2E55051E591A2E5504B7591DF81
:102884009003A2E064076005E064087023740165A6
:1028940044703579019003D0E0FA75F003A4CAA816
:1028A400F028FB74D22AFA74033BFB1226D6801854
:1028B400E0640D70139003C4E004F064287002E433
:1028C400F07A00E0F9120DDB906182E0A2E64003A9
:1028D400022972E591A2E640030229727591BF9024
:1028E40003A2E064057008120D03120D0F80031299
:1028F4000D09754400120D69E99003A3F0790012E3
:102904000D5D120B3B7A017B009003A1E0F91212DA
:1029140013907803E064427055900544E014F0701D
:102924004DC2AF12292A00784DD0E0F618D0E0F657
:10293400E59F540770057522FF800375227FC4C08C
:10294400E0784CE6F52108E65522F522740B78214F
:10295400121EBCD0E02521F8906270E0A2E740F896
:10296400E8C333906272F0906270E0D2E0F090615C
:1029740081E0A2E35009E5E9A2E3500375E9F7A376
:10298400E0A2E75009E591A2E7500375917FEEA21A
:10299400E092AFD0F0D083D082D024D023D022D004
:1029A40021D0E0FED0E0FDD0E0FCD0E0FBD0E0FAA6
:1029B400D0E0F9D0E0F8D0D0D0E032C0E0C0D0C050
:1029C40082C083906183E0A2E05009E5BFA2E05099
:1029D4000375BFFEE0A2E15009E5BFA2E150037513
:1029E400BFFDE0A2E25009E5BFA2E2500375BFFBC0
:1029F400E0A2E35009E5BFA2E3500375BFF7E0A2EC
:102A0400E45009E5BFA2E4500375BFEFE0A2E5502E
:102A140009E5BFA2E5500375BFDFE0A2E65009E572
:102A2400BFA2E6500375BFBFD083D0828088C0E0C8
:102A3400C0D0E8C0E0E9C0E0EAC0E0EBC0E0ECC030
:102A4400E0EDC0E0C0F0E5A7A2E6500FE5A1A2E6E4
:102A5400500953A7BF75A1BF122A97E5A7A2E55055
:102A64000CE5A1A2E5500653A7DF75A1DFE5A7A2F7
:102A7400E15009E5A1A2E1500375A1FDE5A7A2E299
:102A8400500CE5A1A2E2500653A7FB75A1FBD0F0C0
:102A94000229A874F8121FBA7544019003A2E064D5
:102AA400067015120C918A828B83A3A3A3A3A3A3FC
:102AB400E0FAA3E0FB120CF1A2AFE433FED2AF9034
:102AC40003A8E0640170187A207B009003A1E0F968
:102AD4001213277A207B009003A1E0F912121990B7
:102AE4006182E0D2E6F0900541E0602185C6458030
:102AF400169003A7E064017008E5C654F84405F590
:102B0400C653BEFC1228247401654460E4EEA2E0BE
:102B140092AF7F01022066008E468F4785824B85E7
:102B2400834A854182854283E0CEA3E0CF854B82F0
:102B3400854A83EBC9EAC8EDCBECCA75F010C3E84B
:102B440033C8E933C9EA33CAEB33CBC3EA9EF54948
:102B5400EB9FF548B35004AB48AA49EC33CCED33B2
:102B6400CDD5F0DAAE46AF472274E9121FBA74F835
:102B7400121EDE854182854283ECF0A3EDF08A21AA
:102B84008B229003A2E024F7C3940550067521011B
:102B9400022D04120C918A238B24AE23AF24EE4F12
:102BA4007003022D01AC21AD227402121F2AAA82E5
:102BB400AB83120D218E828F83A3A37525FF752607
:102BC400FF7527FF7528007825121D5D7402121FFA
:102BD4002A7529FF752AFF752BFF752C0078291299
:102BE4001D5D78257929121414502A782579291223
:102BF4001D227521017522C87523007524007821D2
:102C040079251214145052852521852622852723DF
:102C14008528248050752D01752EC8752F007530B8
:102C240000852921852A22852B23852C2478217946
:102C340025121D22782D7921121414401C752100AF
:102C440075220075230075240178217929121D222B
:102C540078217925121CE9800C75210175220075F3
:102C6400230075240074097821121CCA752519F5EE
:102C740026F527F52878217925121C2E8E828F833C
:102C8400A3A3A3A3A3A3E0F8A3E0F97AD07B031240
:102C94001E5388258926E4F527F5287821792512FD
:102CA4001CE97406121F2AE0F8A3E0F97AD07B032A
:102CB400121E53E8FA8A25E4F526782179251214A0
:102CC40014500778217925121D229003A2E064088C
:102CD400600AE064066005E06405702D75250D78D2
:102CE40025792112141440217525F47526FF7527C2
:102CF400FF7528FF78217925121CE9800C752100C5
:102D0400752200752300752400854182854283E085
:102D1400F8A3E0F58388827821121DA57408121E99
:102D2400F47F1002206674F7121FBA120D33900557
:102D34003FE064017010906245E4F0A3F053F4F3B3
:102D440043FE0C5390F3120CDFE5C654804449F55E
:102D5400C6E59E547F644970F8906185740FF090C5
:102D6400053DE0F47002A3E0604E90053EE060088B
:102D740014601B14602E804075210175220090059B
:102D84003DE07821121ECBE521F45280802A752182
:102D94000175220090053DE07821121ECBE521F457
:102DA4005290801475210175220090053DE0782130
:102DB400121ECBE521F452A079007F020220667432
:102DC400F7121FBAE9FEEAFF74016E700C7A807B79
:102DD400009003A1E0F9121213903158E493F460C7
:102DE40008E493F9120B2F800953C680E59E547FA3
:102DF40070FA120CE590053FE064017003120B4772
:102E040090053DE0F47002A3E0604B90053EE06065
:102E14000814601A14602C803D75210175220090FD
:102E2400053DE07821121ECBE521428080287521E2
:102E34000175220090053DE07821121ECBE5214268
:102E440090801375210175220090053DE0782112D0
:102E54001ECBE52142A0120D33120C918A218B2244
:102E6400A821A922E8496015E5E170FCE82414F5DD
:102E740082E93400F583E0F46003E0F5E174016F66
:102E8400700A7A019003A1E0F9121297022DBE7420
:102E9400ED121FBA8A218B228C238D247413121FE6
:102EA4002A7825121D967821792512141475290182
:102EB400752AC8752B00752C0050127821792512BB
:102EC4001D2278297921121414501680107825793E
:102ED40021121D22782979251214144004790180C5
:102EE4000279007F0C02206674ED121FBA8A218BCE
:102EF400228C238D247413121F2A7825121D967890
:102F0400257921121414401178217925121D22AA41
:102F140021AB22AC23AD248022752900752A0075CB
:102F24002B00752C0178297925121D227829792105
:102F3400121CE9AA29AB2AAC2BAD2C80A68A828B61
:102F4400837521FF7522FF7523FF752400782112F4
:102F54001D707F0402206674F5121FBA8C828D8363
:102F64007821121D968A828B837821121D36EA24D9
:102F740004F8EB3400F98C828D83A3A3A3A3E0FCB3
:102F8400A3E0FD88828983C3E09CF0A3E09DF088E0
:102F9400828983C3E09420A3E0944E40268A828BE6
:102FA400837521FF7522FF7523FF7524FF78211295
:102FB4001D0F8A828B83A3A3A3A3E02420F0A3E0A4
:102FC400344EF0022F4174F5121FBAE9FE9004F753
:102FD400E0FAA3E0FBEEC333F8E433F974C228F556
:102FE40082748339F583E02AF521A3E03BF5227846
:102FF400211221617A407B427C0F7D00122B1C74CC
:1030040002121EF48A218B228C238D2474107821C1
:10301400121CB1AA21AB227F0402206674F1121F94
:10302400BA8A258B268C278D28740F121F2AE0FA62
:10303400A3E0FB7411121F2AE0F521A3E0F5227826
:1030440021122161EA2401F521EB3400F522E4F593
:1030540023F52478257921121BAE7521717522027E
:1030640078257921121BAEAA25AB26AC27AD2812F0
:103074002B1C7402121EF48B22EA452260047A018E
:1030840080027A00EC2AFCED3400FD7413121F2A2E
:10309400E0F8A3E0F9E8FEE9FFECF8EDF97A717BDA
:1030A40002121E53882189228E828F837821121D59
:1030B400A5ECF8EDF97A717B02121E538A218B225A
:1030C40074057821121ECB8E828F83A3A3A3A3E55C
:1030D40021F0A3E522F07F08022066C082C083E9C4
:1030E400906000F0D083D08222C0E074F21220A657
:1030F400A2AFE433FED2AFE589A2E150031210ED92
:10310400758900C2C5754300EEA2E092AF7F01024B
:103114002105C0E074F21220A6A2AFE433FED2AFC0
:10312400E58BA2E050031210ED758B00C2E880D548
:10313400C0E0C0D0E8C0E0A8A8D2AFC2C7754300C1
:10314400E8A2E792AFD0E0F8D0D0D0E032C2AF022C
:0331540000002256
:10315800FFFFFFFFFFFFFFFFC082C083E9900A92D5
:10316800F00233EF74F7121F4EE99002E1F07C1978
:103178007D037AFF7BFF1208779002E274FFF0A3C9
:10318800F0A3E4F0A3F079051207FF9002E1E0F95B
:103198001207217A957B08120A3F7F0102202074CA
:1031A800F4121F4E8A218B22EB548060309002E18A
:1031B800E0F91211FB8A238B24AE23AF24EE4F6073
:1031C800138E828F83E064B07003120817EEFAEF53
:1031D800FB1211E9AA21E5226480FB80047A007BB6
:1031E800000233BE74F2121F4E74FC121EDEEAFE99
:1031F800EBFFEE4F60387402121F2AEEF0A3EF12B5
:103208003623ECF0A3ED123623AA82AB8312071BF8
:10321800E9F52170737412121F2A1241D7E523456C
:103228002460658E828F8312329AEE4F7005752165
:103238000280557A067B0012127F8A258B26A825E4
:10324800A926E8497005752113803D88828983E4A1
:103258001232A4A3A3EEF0A3EF124670E523F0A365
:10326800E524F09002E712332C9002E76017E0FCA7
:10327800A3E08003EAFCEBFD8C828D8312332C7073
:10328800F38C828D831240FCA9217404121EF4026F
:103298004872A3A3A3A3E0FEA3E0FF22F0A3F08853
:1032A8008289832274F2121F4E8923E975F017A4CC
:1032B800FEAFF09002E6E4F09002E412332C600ACC
:1032C8001212859002E4E4F0A3F0EEFAEFFB12127A
:1032D8007F8A218B22EA4522602FEEFCEFFD7900E0
:1032E8001211D19002E4E521F0A3E522F07B0080E1
:1032F80008123316E4F0A3F00BEBC3952340F2E574
:10330800239002E6F0790080027913024872EB7587
:10331800F017A4F8A9F09002E4E028FAA3E0398AAB
:1033280082F58322123E92EA4B2274F4121F4E75E4
:103338002100752200740C121F2A124644FEE9FF70
:10334800800CE5212401F521E5223400F522C3E5AE
:10335800219CE5229D5032852123852224740378FF
:1033680023121ECBEA2523F8EB3524F988828983BA
:10337800A3A3A3A3A3A31241D7EE65237003EF650C
:103388002470BFE8FAE9FB80047A007B0080277488
:10339800F4121F4E7900EAA2E0501B75217E7522B7
:1033A8008478211221617C047D007A947B0A1207BB
:1033B800F97402121EF47F04022020C082C0839098
:1033C80002E71233F6601C88828983A3A3E06A703F
:1033D80003A3E06B8882898370E8A3A3A3A3123EAA
:1033E8008E80047A007B00D083D082020132124999
:1033F80045E8492274EE121F4E74FC121EDEEAFEE6
:10340800EBFF854182854283E4F0A3F0EE240212AB
:1034180040E0EE2405123611EE2404F527EF1239A8
:10342800F6E024FE603924FC604624FE605224FE47
:10343800605E24FE700302351624FE700302358E8A
:1034480024FE700302359D24FE70030235AC24FC73
:1034580070030235BB24FE70030235CA023607909A
:1034680003007417F0A3E412362B120499023607EE
:10347800854182854283AC82AD8312081D0235D70F
:10348800854182854283AC82AD831208230235D7F9
:103498008525218526227402121F2AAC82AD8385D8
:1034A8002182852283123E8E12073F8A258B26AC05
:1034B80025AD26EC4D6042E4F525F5267825122148
:1034C800617525007526037825122161752501751A
:1034D800260378251221617408121F2A122178798F
:1034E80016123E8812085F7408121EF4E9F525705A
:1034F8000B123E841204B1800F7525018521828547
:1035080022831236191240FC8525210235DA74020D
:10351800121F2AAC82AD83852582852683123E8EB2
:1035280012073F8A298B2AAC29AD2AEC4D604385C6
:103538002582852683A3A3122178752900752A037D
:103548007829122161752901752A037829122161C8
:103558007408121F2A1221787916123E8812085F01
:103568007408121EF4E9F522700B123E841204B797
:10357800800F75220185258285268312361912400F
:10358800FC852221804C854182854283AC82AD83B3
:10359800120829803A854182854283AC82AD831224
:1035A800082F802B854182854283AC82AD83120827
:1035B80035801C854182854283AC82AD8312083BED
:1035C800800D854182854283AC82AD83120841E932
:1035D800F521E52160298E828F83A3E06414601FA2
:1035E800852782852883E0900300123623124941FB
:1035F8009003011240FCE521A312362B120493EE2E
:10360800FAEFFB1207BD023FE8F525EF3400F52677
:103618002212494585418285428322F0854182856F
:10362800428322F07C007D03852382852483123E19
:10363800922274EE121F4E74FC121EDE8A238B2413
:103648008C278D28EA2405F521EB3400F5227C151A
:103658007D0079007A007B031211D1E5212402F55F
:1036680025E5221236148541828542838582298583
:10367800832A7829122161852182852283A3A3A325
:10368800A3123B3E122161E5212405F529E52234E8
:1036980000F52A7829122161852582852683123E24
:1036A800981207397406121EF48A298B2AAE29AF9C
:1036B8002AE5232402F523E5241240E3EE4F7003A4
:1036C80002380080177402121F2A123E8E888289DF
:1036D80083EAF0A3EBF0900300E004F0900300E02D
:1036E800C394054003023800E4F529F52A78291225
:1036F80021617529E9752A0278291221617529EA5B
:10370800752A0278291221617406121F2A1221785B
:103718007910EEFCEFFD123E8812085F7408121E45
:10372800F4E9705E852182852283A3A3A3A3A3A3C2
:10373800A3E0F89002E9E0687048123B3E1221616C
:103748007CEA7D02E5212408FAE5223400FB121107
:10375800CB7402121EF4E960298E828F83A3A3A37F
:10376800A3123E8E900300E0F52974027829121EF8
:10377800CB74012529F5827403352AF583EAF0A371
:10378800EBF07402121F2A85822985832A78291270
:1037980021617402121F2A122178852582852683C9
:1037A8001249561207457404121EF48A298B2AAE50
:1037B80029AF2A900300E0F529752A0074027829B8
:1037C800121ECB74002529F87403352AF9888289DA
:1037D80083A312332C70030236C4E82403F8E934B7
:1037E80000F9EE4F60030236CD8882898374FFF0BA
:1037F800A3F0900300E004F0900300E0600A123E9A
:10380800841204A57900800B8521828522831240C9
:10381800F3790A023FE874EA121F4E74FE121EDEA4
:103828008C2B8D2CEA2405F525EB124AC012329E0A
:10383800752100752200EA2402F529EB3400F52AE7
:1038480085418285428385822385832478231221BA
:1038580061852582852683A3A3A3A3123A0012219A
:1038680061E5252405F523E5261240E37823122196
:1038780061852582852683124954120739740612F8
:103888001EF48A238B24EA452470030239B1EA2402
:1038980004F527EB1239F612329E8A828B83A3A392
:1038A800A3E0F9852982852A83123E8E120727E92B
:1038B800F52260030239B1E4F52DF52E782D122199
:1038C80061752DE9752E02782D122161752DEA7525
:1038D8002E02782D1221617406121F2A122178797E
:1038E80013AC23AD24852982852A83123E8E1208C3
:1038F8005F7408121EF4E9F52260030239B19002E0
:10390800E9E0F8E5217009E02402900301F080174E
:10391800900301E0FCE82402FAE43400FBEA6C704E
:1039280001EB60030239B5852182AA82123B3594E6
:1039380014123B2D5073852782852883E0C0E074DC
:10394800022A1239EDD0E0F00521852782852883E7
:10395800A3E0C0E0852123740225231239EDD0E0CD
:10396800F005219002E9123A001221617CEA7D02F9
:1039780085212374022523FA74033400FB1211B93C
:103988007402121EF49002E9E02521F52174FF6EFD
:10399800700374FF6F6012EE24010EEF3400FFE530
:1039A80021C394145003023848E5216013123D796D
:1039B800852982852A83123E8E1204AB79008014F1
:1039C800E522700375220A852B82852C83EEF0A3ED
:1039D800EFF0A9227402121EF47F0E022020852126
:1039E8002574022525F58274033400F583223400FA
:1039F800F528852782F583221246832274EE121F4A
:103A08004E74FE121EDE8C278D28EA2405F525EB60
:103A1800123614752400900300E4F0F523EA24021A
:103A2800F521EB3400F5228049900300E0FA90027A
:103A3800E9E0F8123B359417123B2D400D90030036
:103A4800E0F87416C3989002E9F0123B3E12216127
:103A58007CEA7D0274012AFA74033400FB1211B95E
:103A68007402121EF49002E9E0F8900300E028F0D6
:103A78000523E5252416F582E5261239F1E0F8E557
:103A880023C3984003023B16900300E0C3941650EA
:103A98007DE523C333F8E433F9E52528FEE5263927
:103AA800FF854182854283AC82AD838E828F8312EB
:103AB8003E8E12073F8A298B2AAC29AD2AEC4D701D
:103AC800057524018043E4F529F52A782912216136
:103AD8007529E9752A0278291221617529EA752A5A
:103AE8000278291221617406121F2A122178791688
:103AF800852182852283123E8E12085F7408121E69
:103B0800F4E9F5247003023A311240EF80107C008A
:103B18007D03852182852283123E8E1204BDA9244D
:103B28007402023FEAE99400C365D03322EA28F818
:103B3800E43400F9E822E0F529752A00782922748E
:103B4800EA121F4E74FC121EDE8A258B268C2B8DE2
:103B58002CEA2405F523EB1240E3752100752200B9
:103B6800E5232402F529E5243400F52A7402121FFE
:103B78002A858227858328782712216185238285D3
:103B88002483A3A3A3A312462F122161E5232405AE
:103B9800F527E5243400F528782712216185298244
:103BA800852A831240E9123E881207397406121ECC
:103BB800F48A278B28AE27AF28E5252402F527E5C8
:103BC800263400F52880408882898374FFF0052117
:103BD8001239E674FFF005219002E9E0F525752613
:103BE8000078251221617CEA7D0285212574022551
:103BF80025FA74033400FB1211B97402121EF490F2
:103C080002E9E02521F521EE4F60718E828F83A3B2
:103C1800A3A3E0F9852782852883123E8E12072701
:103C2800E9F522EE2404123611E97044E4F52DF585
:103C38002E782D122161752DE9752E02782D12210D
:103C480061752DEA752E02782D1221617408121FF4
:103C58002A1221787911EEFCEFFD852782852883C9
:103C6800123E8E12085F7408121EF4E9F5226027CE
:103C7800852582852683123D6F1240FCE52170035D
:103C8800023D55123D79852782852883123E8E1282
:103C980004C37900023D6A852182AA82EA9002E97A
:103CA8007009E02404900301F08022E0F8900301F9
:103CB800E0F52DE82404FCE43400FDEC652D7001EA
:103CC800ED70C0123B359412123B2D50B6852582FB
:103CD800852683E0C0E074022A1239EDD0E0F005B1
:103CE80021852582852683A3E0C0E01239E6D0E04D
:103CF800123D8B85822585832678251221617404DF
:103D0800121F2A122178852982852A831249561280
:103D180007457404121EF48A258B26AE25AF268526
:103D2800212574022525F874033400F9EE4F700339
:103D3800023BCF854182854283E088828983123D98
:103D48008BA3E0C0E01239E6D0E0023BDDE522704B
:103D58000375220A852382852483123D6F1240FC55
:103D6800A92274040239DE124945852B82852C83E9
:103D780022900301E0F5F0E52184900300F07C0037
:103D88007D0322F005218541828542832274EC124D
:103D98001F4E74FE121EDE8A218B228C278D28EA84
:103DA8002405FEEB3400FF854182854283AC82AD59
:103DB800838E828F83123E8E12073F8A238B24EED6
:103DC8002418123611EA45247003023E5F123FD1CF
:103DD8005032854182854283123E8E1208538A29C9
:103DE8008B2AEA452A606B7912AC23AD248521829F
:103DF800852283123E8E852982852A83121F4CE9EB
:103E0800F5237058E4F523F52478231221618E8276
:103E18008F83A3A3E0F5237823122161EE240312F4
:103E280040E078231221618E828F83123E98120817
:103E3800657406121EF4E9F523702185258285260E
:103E480083E0701F852182852283123E8E1204C969
:103E5800801175230E80097523018004E523600312
:103E68001240EF852582852683E060047900800270
:103E7800A9237402121EF47F0C0220207C007D030B
:103E8800852382852483123E9222E0FAA3E0FB2256
:103E9800E0FCA3E0FD852182852283123E922274F4
:103EA800EE121F4E74FE121EDE8A218B228C258D87
:103EB80026EA2405FEEB3400FF752700854182853C
:103EC8004283AC82AD838E828F83123E8E12073F6F
:103ED8008A238B24EA45247003023FBD123FD15048
:103EE80035854182854283123E8E1208538A278B7C
:103EF80028EA4528605E7912AC23AD2485218285A5
:103F08002283123E8E852782852883121F4CE9F56D
:103F1800276003023FC08521828522831241D7AAE8
:103F280023FB1208478A298B2AA829A92AE849705D
:103F38001E7AFF7BFF1208478A298B2AA829A92AFB
:103F4800E849606C88828983E523F0A3E524F0754D
:103F58002300800775270E805F05239002E6E0FAAC
:103F6800E523C39A504AE52375F017A4FAABF08805
:103F7800828983A3A3E02AFAA3E03BFB8A828B838E
:103F88001240E9EC4D70D27523177524007823127E
:103F98002161EEFCEFFD1211B97402121EF4EEFC61
:103FA800EFFD852182852283123E8E1204CF801474
:103FB800752709800375270112493D8525828526C5
:103FC800831240FCA927023B28E5212402F521E5BC
:103FD800223400F5228A828B83A3A3A3E0A2E522E0
:103FE8007404121EF47F0A02202074EC121F4E8CF7
:103FF800298D2AEA2405F525EB123614752800EADE
:104008002402F523EB1240E3852382F583123E8ECA
:104018001208478A218B22EA452270030240D5758F
:1040280027008071852582852683E06401704F8E84
:10403800828F83A3A31221788E828F83A3A3A3A345
:10404800E0F52B752C00782B122161EE2405F52B59
:10405800EF3400F52C782B122161123E8812086586
:104068007406121EF4E9F5286014852582852683D6
:10407800E4F012493D852982852A831240FC7C1789
:104088007D007900EEFAEFFB1211D18E828F83E466
:10409800F0A3F005279002E6E0F8E527C398501E44
:1040A800E52775F017A4F8A9F0852182852283A356
:1040B800A3124ACA1240E9EC4D600302402C852144
:1040C8008285228374FFF0A3F0E5287006123E88EB
:1040D8001204D5A928023E7FF523EF3400F52422E7
:1040E800A3E0FCA3E0FD228E828F83124945852739
:1040F80082852883E8F0A3E9F022C082C083900279
:10410800E2E06A7003A3E06B70067AE27B02800447
:104118007A007B000233EFC082C08378008C828DE6
:1041280083E06A7003A3E06B7010E875F003A4F8ED
:10413800A9F0EC28FAED39FB8015088C828D83A351
:10414800A3A3E06A7003A3E06B60DF7A007B000240
:1041580033EF74F6121F4E1208118A828B83E582A0
:10416800458370067A007B008007A3A3A3A3123EB1
:104178008E0247EE74F2121F4EE9FE740E121F2AC9
:104188001241D77410121F2A12464F8C828D83E079
:1041980064027036A312494BF525A3E0F9A82574EB
:1041A80002687003742969702175250275260078E4
:1041B8002512216178211221617823122161EEF9FB
:1041C8001208897406121EF480027901024872E00E
:1041D800F523A3E0F5242274E8121F4E74FB121E87
:1041E800DEE9854182854283F08A2F8B30ECFEED33
:1041F800FF752900741D121F2A124941741D121FD0
:104208002A1240FC8E828F83A3A3A3E0A2E4502D40
:10421800741D121F2A123E8E1208538A828B83E560
:104228008245837003024620790AEEFCEFFDAA2F2F
:10423800AB30121F4CE9F5296003024623741F12A4
:104248001F2A12464F7421121F2A1241D7742312B3
:104258001F2AE0F527A3E0F5288E828F83E0640209
:1042680060030245CEA3124941852182852283A39A
:1042780085822B85832CEE24061236118882898349
:10428800E0FAA3E0F9EA2400F52DE439F52E782DBB
:104298001221EB010000280128C3420700022888E8
:1042A800430328F5420029BF440129EA4402298B27
:1042B800440329BF4404296945CE45E527452860BC
:1042C800030245C9852582852683124644FAE9FBFF
:1042D8008A828B83E085238285248312467A122181
:1042E800618A828B83A3E0FCA3E0024553E527455E
:1042F8002860030245C98523828524837401F0124E
:104308004657852182852283F07C007D008E828F2E
:1043180083A3A3A3A3E02401FAA3E03400FB1207BC
:104328003FEA4B60418A828B83E02402F88523822E
:10433800852483E028F0EA2404F8EB3400F9888225
:104348008983E0852B82852C8312468C12467A124B
:1043580021618A828B831240E8E5212403FAE52251
:104368003400FB024558852382852483E02404F029
:104378007C047D007900AA2BAB2C1211D1024623B4
:10438800E527452860030245C9124657FEA3E0FF0A
:104398008523828524837404F0EE85218285228317
:1043A800F0EF852B82852C83F07403121F2AAC82D0
:1043B800AD83EEFAEFFB12073F8A258B26EA4526E6
:1043C800700302446C8A828B83A3A312329A74010D
:1043D800121F2A8582278583287827122161740570
:1043E800121F2A1221787CFF7DFF120745740412E0
:1043F8001EF48B28EA45287033852582852683128A
:10440800462F122161852582852683A31221787C77
:10441800027D007A357B851205717404121EF4E959
:10442800700A7401121F2A74FFF0A3F08E828F8322
:10443800E06402703975250275260078251221611D
:104448008E828F831240E8E5212404FAE5223400A5
:10445800FB1211B97402121EF4852382852483E0AD
:10446800240280097401121F2AEEF0A3EFF07401F0
:10447800121F2A124640F07401121F2AA31246384E
:104488000245C3E527452860030245C9852582857D
:1044980026831240E9AA2FAB3012087D8523828536
:1044A80024837402F0EA852182852283F0852B8299
:1044B800852C83EB0245C6E527452860030245C9DC
:1044C800124657F8A3E0F98523828524837402F005
:1044D800E8852182852283F0E9852B82852C830259
:1044E80045C6852582852683123E8E1211B3EAFCC5
:1044F8008C82A882C39527E49528405FE8652770D9
:1045080002E52870047C008022854182854283E090
:10451800FAE5272AFAE5283400FBC3EA98EB940069
:104528005003E08005E527CCC39CFCEC85238285FD
:104538002483F08C23752400782312216185258239
:10454800852683E02527FCA3E03528FDAA21AB2298
:104558001211B97402121EF4024623752907024685
:1045680023E5274528705A852582852683124941E7
:1045780085238285248374071232A61246381232A4
:10458800A6A3E0852B82852C83F0E82402FAE9347F
:1045980000FB8A828B83124638124667124640A374
:1045A800124670124649F0E82405F8E93400F98803
:1045B800828983124649A312468CA3A3A3A3F08041
:1045C8005A75290B8055741D121F2A123E8E120827
:1045D800118A828B83E5824583603D124941882593
:1045E8008926E8452660317827122161782312212F
:1045F8006178211221617406121F2AE0F9EEFCEF9E
:10460800FDAA2FAB30852582852683121F4C7406A0
:10461800121EF4E9F529800375290EA929740512DB
:104628001EF47F10022020E0F52775280078272245
:10463800E08521828522832212469622124945E886
:1046480022124696A3A322E0F521A3E0F5222285B3
:104658002582852683E0F8A3E0F5838882E022A3FB
:10466800A3F08A828B83A322F088828983A3A3A3E1
:10467800A322F08A828B8312468322E0F5237524D5
:1046880000782322F088828983A312469622E08547
:104698002182852283A3A32274EE121F4E74FE1278
:1046A8001EDE8A238B24ECFAEDFB7414121F2AE019
:1046B800F529A3E0F52A7416121F2AE0FE741812D1
:1046C8001F2AE0F527A3E0F528854182854283ACBF
:1046D80082AD8312073F8A258B26EA4526604985E5
:1046E8004182854283123E8E1208118A828B83E5AD
:1046F800824583602FA3A312464FE52145226024FB
:1047080078271221617829122161EEF9AC25AD26AE
:10471800AA23AB24852182852283121F4C7404129C
:104728001EF48006790E80027901023B2874F61285
:104738001F4E74FE121EDE740C121F2A1246448588
:104748004182854283F07401121F2AE9F0E4F521C1
:10475800F5227821122161752102782112216174D4
:1047680004121F2A85822185832278211221611251
:1047780008657406121EF47402121EF4806874F739
:10478800121F4EEAFEEBFF89217C197D0312087D7A
:10479800EA5402600BA921EEFAEFFB1207338002FC
:1047A80079010231A274F6121F4E74FF6A70037405
:1047B800FF6B70168C828D831247F3E4F08C828D28
:1047C80083A3A3A31247F3A3801812084D8A218B51
:1047D80022A821A922E849600D8882898374FF12E2
:1047E80032A4A3A3E4F07F0202202074FFF0A3F018
:1047F8008C828D83A3A32274F6121F4E12084D8A51
:10480800828B83E58245836006A3A3E0FA80027A5F
:10481800007B0080D174F2121F4E8A218B22ECFE9D
:10482800EDFF740E121F2AE0F52312084D8A258B1E
:1048380026A825A926E8497026EEFCEFFD7AFF7B1D
:10484800FF12084D8A258B26A825A926E849700459
:104858007911801688828983E521F0A3E522F08802
:10486800828983A3A3E523F079007F0602202074C0
:10487800EE121F4EEAFEEBFF8C218D22892574145F
:10488800121F2A1249417416121F2A123E8E7526CB
:1048980000E849600302493574026525600302494E
:1048A800307412121F2A12494BFCA3E0F9EC2400C1
:1048B800F527E439F528EAF4F8EBF4F9EC58F8E5CB
:1048C8002859F9E849705CE5212406F8ED3400F927
:1048D800882389248882F58312495612087D8A29FB
:1048E8008B2AE52765297004E528652A6042782720
:1048F8001221618523828524831249561208837404
:1049080002121EF4E9F52670277827122161852105
:1049180082852283A3A312495412089B7402121E93
:10492800F4800D752680800875260D800375260B8A
:10493800A926023FED8E828F8312494522E0F8A313
:10494800E0F92212494588828983E022A3A3E0FC8A
:10495800A3E0FDEEFAEFFB2274E8121F4E74E71293
:104968001EDE854182854283EAF0A3EBF08C2F8D11
:104978003089277521007522007431121F2AE0F54D
:104988002BA3E0F52C7433121F2AE0F52DA3E0F5D4
:104998002E7435121F2AE0F528E52275F003A4F8D5
:1049A800A9F0854182854283124ACAE0F47003A3C4
:1049B800E0F47003024AADEE2402F525EF124AC076
:1049C800E07003024AAD852F238530247823122115
:1049D80061AC2DAD2EAA2BAB2C1208057402121E49
:1049E800F48A238B24EA45247003024AADE4F529AE
:1049F800F52A78291221617406121F2A85822985D1
:104A0800832A78291221617409121F2A858229852F
:104A1800832A7829122161852B82852C83A3A3A35D
:104A2800A31221787914AC23AD248E828F83123E91
:104A38008E12085F7408121EF4E970698523828556
:104A48002483A3A3A3A31249417402121F2A12406C
:104A5800FC852582852683E0A2E05018A9277402E8
:104A6800121F2AAC82AD838E828F83123E8E12076C
:104A780057E94221852582852683E0A2E15026E573
:104A880028F5237823122165A9277403121F2AAC5D
:104A980082AD838E828F83123E8E1207517401126B
:104AA8001EF4E942210522E522C39402500302497B
:104AB800A1A92174190246273400F526852582F517
:104AC8008322E028FEA3E039FF8E828F832274F2CE
:104AD800121F4EEAFEEBFF892474016524600E74F0
:104AE800026524706A7901120A5DE97062EEFAEFD4
:104AF800FB1208478A218B22EA452260477523006A
:104B0800800B7C177D0079001211D105239002E6F5
:104B1800E0F8E523C3985021E52375F017A4F8A918
:104B2800F0852182852283A3A3E028FAA3E039FB3C
:104B38008A828B831233F670C98521828522837419
:104B4800FFF0A3F07C197D03EEFAEFFB1208770261
:104B5800487274F2121F4E8A218B22ECFEEDFF740C
:104B68000E121F2A1241D7900A92E0F4603D7A098A
:104B78007B001211E3EA4B60328A828B8374B1F0B6
:104B8800A3E4124669A3124667A3E521F0A3E52230
:104B9800124BB6EEF0A3EF124BB6A3A3E523F0A396
:104BA800E524F0900A92E0F91211EF024872F08AB7
:104BB800828B83A3A3A3A3A322C082C08390619006
:104BC8007404F0A37448F0A37402F09061807440F8
:104BD800F09061BC7403F09061877419F09062657D
:104BE800741BF0906249E0C3941390619C400A746E
:104BF80009F090606674018007740DF0906066E4B7
:104C0800F090619A7433F0A37455F09061A0743AEF
:104C1800F090053FE064017009C2919003A67467A3
:104C280080059003A67461F090315EE493906186EC
:104C3800F0903158E493F46027E493540FF89061AE
:104C480085E0686012E5C654804449F5C6E59E547F
:104C58007F644970F8E8F053C680E59E547F70FA87
:104C68007905120DBD024E1CC082C083E9540FF9AC
:104C7800906185E0696012E5C654804449F5C6E54F
:104C88009E547F644970F8E9F053C680E59E547FCE
:104C980070FA024E1CC082C083E5A8F853A87E9023
:104CA8006181E4F0A3F0A3F0C2BA539AFEC28975F9
:104CB8009B00C2C275E90075910075BF0075A91106
:104CC80075B905906181F0A374C0F0A3E4F0D2BA7D
:104CD800439A0174805842A8024E1CC082C0837453
:104CE800F8121EDE9003A4E0F8A3E0F9E849700387
:104CF800024E119003A4E054406023790885418254
:104D0800854283AA82AB83120C1F85418285428328
:104D1800AA82AB8312090D9003A4E054BFF0E054BB
:104D2800806010790C7A657B05120C1F9003A4E053
:104D3800547FF0E0A2E0503190619A7433F0A3748C
:104D480055F09061A0743AF090053FE06401700955
:104D5800C2919003A6746780059003A67461F0124F
:104D680009139003A4E054FEF0E05402603190610E
:104D78009A743FF0A3745AF09061A0747FF0900584
:104D88003FE064017009D2919003A6747180059088
:104D980003A6746AF01209139003A4E054FDF0E02E
:104DA8005404601390315CE493906186F012091901
:104DB8009003A4E054FBF0E05408601390315DE4E4
:104DC80093906186F01209199003A4E054F7F0E07B
:104DD8005410601390315EE493906186F0120919C3
:104DE8009003A4E054EFF0E05420600A12091990EF
:104DF80003A4E054DFF0A3E05401600D120B471246
:104E0800091F9003A5E054FEF07408121EF4024E28
:104E18001CF0A3F0D083D08202013274EC121F4E32
:104E280074F4121EDE854182854283AC82AD83759F
:104E380083847582EC7404121DF190315C93F460E4
:104E480003024FAF907808E0C394025003024F8FDB
:104E58007404121F2AAC82AD8375838475826574CD
:104E680008121DF185418285428385822B85832C1A
:104E78007404121F2AAC82AD837527FF7528FF7F43
:104E8800FF7E00752548752678801574086E7003B6
:104E9800024F2374096E7003024F23740A6E607BFD
:104EA8008525828526837821121D968C828D83A97B
:104EB80022E523C9F8882974187821121CB1E5293C
:104EC8004521F8C3E098A3E0998525828526837853
:104ED80021121D9640188C828D8374187821121C1B
:104EE800B1E5294521F8E0C398F8A3E0801C7418BF
:104EF8007821121CB1E5294521FAE9FB8C828D83C2
:104F0800E0F8A3E0F9EAC398F8EB99F9C3E8952724
:104F1800E99528500688278928EEFF0EE525240400
:104F2800F525E5263400F526EEC394135003024E0A
:104F38009374FF6527700474FF652860238F2174BC
:104F4800027821121ECB74482521F5827478352207
:104F5800F5837821121D96852B82852C83E521F017
:104F6800EC2402FCED3400FD852B82852C83A3857F
:104F7800822B85832C740C121F2AE5826C7003E542
:104F8800836D6003024E817521017522007821121C
:104F980021617402121F2AAC82AD837A577B0C12EE
:104FA80010C37402121EF4740C121EF47F0C02203B
:104FB80020C082C0839061AE7468F0A3746AF090D8
:104FC800624574FBF0A304F053F4FD43FE02900520
:104FD8003F7401F09061A0E0643A90619A70237484
:104FE80033F0A37455F09061A0743AF07401640131
:104FF8007009C2919003A6746780289003A6746113
:105008008021743FF0A3745AF09061A0747FF0740B
:105018000164017009D2919003A674718005900310
:10502800A6746A024E1B7F08022020C082C08390AB
:1050380004F1E06401700A9004F6E06004790C80E1
:10504800027900024E1CC082C08375E1F19004F41D
:10505800E0605B14600914605F14605714705E129E
:105068000B599004EAE0F97AEB7B04120D3F7AD6EB
:105078007BBE7C897D8E120D757A557B557C557D5E
:1050880000120D4B9004F5E0F9120D577901120D3D
:10509800B19004E8E0F8A3E0C82416F582E83400EB
:1050A800F5837471F0A3740BF07900024E1C120B97
:1050B8005F80AF120B6580AA120B6B80A5791280F6
:1050C800EA74F0121F4E75D90D9004D5E0A2E0E401
:1050D800331313F89004EAE0C4333354C04844014E
:1050E800F5D978E8790488828983A3A3A3E0F5D960
:1050F80088828983A3A882A983E864EE7003E9649F
:105108000470E378D5790488828983A3E0F5D98887
:10511800828983A3A882A983E864DB7003E9640415
:1051280070E575E1959004D5E0F97AD67B04120D07
:1051380045900AB47405F0A3740BF0A37467F0A348
:10514800740CF0A37467F0A3740CF0A37467F0A355
:10515800740CF0A3740BF0A3740BF0A37467F0A3A2
:10516800740CF0A37423F0A3740BF0900AC2746754
:10517800F0A3740CF0A37467F0A3740CF0A3746725
:10518800F0A3740CF0A37467F0A3740CF0A3746715
:10519800F0A3740CF0A37467F0A3740CF09004F4FB
:1051A800E064019004E87012E0F8A3E0F5838882D7
:1051B800A3A37521007522088010E0F8A3E0F58309
:1051C8008882A3A375210475220075230075240025
:1051D8007821121CFC7525FF7526FF7527FF752899
:1051E8000078217925121D4A9004E8E0F8A3E0C868
:1051F800240EF582E83400F5837821121DA5900469
:10520800E8E0F8A3E0C82414F582E83400F58374D4
:1052180013F09003A27402F002502E74F7121F4E7E
:105228009004FAE02407F5D99004EAE0C433335433
:10523800C0F5D978E8790488828983A3A3A3E0F527
:10524800D988828983A3A882A983E864EE7003E9D8
:10525800640470E39004FAE0601F78E87904FAE8DF
:105268002413F582E93400F583E0F5D9888289832F
:10527800A3A882A9831AEA70E690051AE02407F524
:10528800D99004EAE0C4333354C04404F5D978E82B
:10529800790488828983A3A3A3E0F5D988828983C6
:1052A800A3A882A983E864EE7003E9640470E3901C
:1052B800051AE0601F78E87904FAE82433F582E9F2
:1052C8003400F583E0F5D988828983A3A882A9836D
:1052D8001AEA70E675E195900AB47411F0A3740B9C
:1052E800F0A37467F0A3740CF0A37467F0A3740CB4
:1052F800F0A37467F0A3740CF0A3740BF0A3740B01
:10530800F0A37467F0A3740CF0A37423F0A3740BD8
:10531800F0900AC27467F0A3740CF0A37467F0A34A
:10532800740CF0A37467F0A3740CF0A37467F0A373
:10533800740CF0A37467F0A3740CF0A37467F0A363
:10534800740CF09004E8E0F8A3E0C8240EF582E8B5
:105358003400F58374FFF0A3F0A3F0A3F09004E801
:10536800E0F8A3E0C82414F582E83400F583741249
:10537800F09003A27401F0FF02202074F7121F4E70
:105388009004FAE02407F5D99004EAE0C4333354D2
:10539800C04402F5D978E8790488828983A3A3A355
:1053A800E0F5D988828983A3A882A983E864EE708E
:1053B80003E9640470E39004FAE0601F78E8790474
:1053C800FAE82413F582E93400F583E0F5D98882F8
:1053D8008983A3A882A9831AEA70E675E195900AE1
:1053E800B4741DF0A3740BF0A3741DF0A3740BF038
:1053F800A3741DF0A3740BF0A3741DF0A3740BF039
:10540800A3741DF0A3740BF0A3741DF0A3740BF028
:10541800A37423F0A3740BF0900AC27467F0A3740A
:105428000CF0A37467F0A3740CF0A37467F0A37472
:105438000CF0A37467F0A3740CF0A37467F0A37462
:105448000CF0A37467F0A3740CF09004E8E0F8A3E0
:10545800E0C8240EF582E83400F58374FFF0A3F069
:10546800A3F0A3F09004E8E0F8A3E0C82414F582C0
:10547800E83400F5837414F09003A27404F0025722
:105488004A74F7121F4E9004FAE02407F5D99004E5
:10549800EAE0C4333354C04406F5D978E87904887F
:1054A800828983A3A3A3E0F5D988828983A3A882EC
:1054B800A983E864EE7003E9640470E39004FAE0F9
:1054C800601F78E87904FAE82413F582E93400F5D6
:1054D80083E0F5D988828983A3A882A9831AEA7010
:1054E800E690051AE02407F5D99004EAE0C43333BE
:1054F80054C04404F5D978E8790488828983A3A341
:10550800A3E0F5D988828983A3A882A983E864EEF9
:105518007003E9640470E390051AE0601F78E87985
:1055280004FAE82433F582E93400F583E0F5D988F4
:10553800828983A3A882A9831AEA70E675E1959007
:105548000AB47417F0A3740BF0A37467F0A3740C77
:10555800F0A37467F0A3740CF0A37467F0A3740C41
:10556800F0A37467F0A3740CF0A37467F0A3740C31
:10557800F0A37423F0A3740BF0900AC27467F0A32D
:10558800740CF0A37467F0A3740CF0A37467F0A311
:10559800740CF0A37467F0A3740CF0A37467F0A301
:1055A800740CF0A37467F0A3740CF09004E8E0F8AE
:1055B800A3E0C8240EF582E83400F58374FFF0A355
:1055C800F0A3F0A3F09004E8E0F8A3E0C82414F5F1
:1055D80082E83400F5837415F09003A27403F00296
:1055E800574AC082C0839004E8E0F8A3E0C82406C4
:1055F800F582E83400F583E4024E1974F7121F4E61
:105608009003D0E0F875F003A4C8AAF02AF974D280
:1056180028F8740339F9E82405FAE93400FB8A828A
:105628008B83E0FCA3E0FD88828983A3A3A3A3A3C3
:10563800A3A3A3A3ECF0A3EDF088828983A3A3A37B
:10564800A3A3A3A3E024FFF8A3E034FFF98A828B85
:1056580083E8F0A3E9F002574A74F7121F4EEAFEF6
:10566800EBFF9061D0E0600302573E75D90E75D903
:105678000375D904EE248BF582EF3400F583E582B7
:105688002408F8E5833400F9E0F5D9A3E8658270C9
:1056980003E9658370F2EE2483F582EF3400F58325
:1056A800E5822404F8E5833400F9E0F5D9A3E86538
:1056B800827003E9658370F275E1957908EE248BB1
:1056C800FAEF3400FB120C137904EE2483FAEF345A
:1056D80000FB120C137C00EEF8EFF9ECFAC3E49A25
:1056E800FA95E0FBEE2AFAEF3BFBEA248AF582EB17
:1056F8003400F583E0C0E0E824AAF582E93400F537
:1057080083D0E0F00C88828983A3A882A983ECC3A4
:10571800940840C7EE246FF582EF3400F583E0F873
:10572800A3E0F9EE2471F582EF3400F583E8F0A3E5
:10573800E9F07901800279008008F0EEA2E092AFEA
:1057480079007F01022020C082C08375D90275D9F3
:105758000375D90575E195EA246FF582EB3400F5F8
:1057680083E0F8A3E0F9EA2471F582EB3400F583CD
:10577800E8F0A3E9F07901024E1C74F6121F4EEA14
:10578800FEEBFF9005457406F075214575220578F6
:10579800211221617C017903120C5B7402121EF440
:1057A80075D90675D903758245758305E0F5D9A3C2
:1057B800E582644A7004E583640570F075E19590AC
:1057C80003A2E06408701EEE246FF582EF3400F542
:1057D80083E0F8A3E0F9EE2471F582EF3400F58355
:1057E800E8F0A3E9F07901025A5074F6121F4EEA64
:1057F800FEEBFF9061D0E070667801900545740B70
:10580800F09003A2E06407701975214575220578A8
:10581800211221617C017903120C5B7402121EF4BF
:105828007805740128F5D975D903758245758305FE
:10583800E8FAE0F5D9A31AEA70F875E195EE246F55
:10584800F582EF3400F583E0F8A3E0F9EE2471F572
:1058580082EF3400F583E8F0A3E9F079018002795A
:1058680000025A5074F7121F4EEAFEEBFF75D90377
:1058780075D90375D90DEE24DDF582EF3400F58373
:10588800E0F5D975E1957904120D7BEE246FF58268
:10589800EF3400F583E0F8A3E0F9EE2471F582EF28
:1058A8003400F583E8F0A3E9F0790102574A74F669
:1058B800121F4EEAFEEBFF9061D0E0F87480C398A7
:1058C800FAEE2482F582EF3400F583E06004780470
:1058D80080027800E8240BF8EAC398500302597B49
:1058E8007D09900545EDF0EE24E2F8EF3400F97AF1
:1058F800467B057C0888828983E08A828B83F088CE
:10590800828983A3A882A9838A828B83A3AA82AB74
:10591800831CEC70E0EE2482F582EF3400F583E01E
:10592800601D75214575220578211221617C097950
:1059380003EEFAEFFB120C5B7402121EF47D0D7479
:10594800012DF5D975D9037582457583058D21E03B
:10595800F5D9A31521E52170F675E1957904120DA5
:105968007BEE241DF582EF3400F583E4F0A3F07993
:105978000180027900025A5074F6121F4EEAFEEBBB
:10598800FF9061D0E0F87480C398FAEE2482F58223
:10599800EF3400F583E06004780480027800E8249E
:1059A80008F8EAC3985003025A4E780690054574E1
:1059B8000CF09003BFE0900546F09003C0E090051E
:1059C80047F09003C1E0900548F09003C2E09005CD
:1059D80049F09003C3E090054AF0EE2482F582EF87
:1059E8003400F583E0601B75214575220578211286
:1059F80021617C067903EEFA120C5B7402121EF424
:105A0800780A740128F5D975D90375824575830517
:105A18008821E0F5D9A31521E52170F675E195797E
:105A280004120D7BEE246FF582EF3400F583E0F865
:105A3800A3E0F9EE2471F582EF3400F583E8F0A3D2
:105A4800E9F07901800279007F0202202074F612C1
:105A58001F4EEAFEEBFF9061D0E0F87480C398FA1D
:105A6800EE2482F582EF3400F583E0600478048048
:105A7800027800E82404F8EAC3985003025B2F7800
:105A880002900545E8F0EE24F4F582EF3400F58342
:105A9800E0900546F0EE2482F582EF3400F583E0CD
:105AA800601B75214575220578211221617C0279D8
:105AB80003EEFA120C5B7402121EF47806740128C5
:105AC800F5D975D9037582457583058821E0F5D91F
:105AD800A31521E52170F675E195EE2473F582EFA3
:105AE8003400F583E4F0EE247FF582EF3400F5838B
:105AF800E4F0EE241DF582EF3400F583E4F0A3F022
:105B08007904120D7BEE240DF582EF3400F583E065
:105B1800F8A3E0F9EE2471F582EF3400F583E8F09C
:105B2800A3E9F0790180027900025A5074F6121F35
